{
    "_format": "hh-sol-artifact-1",
    "contractName": "Transaction",
    "sourceName": "contracts/Transaction.sol",
    "abi": [
        {
            "anonymous": false,
            "inputs": [
                {
                    "indexed": false,
                    "internalType": "address",
                    "name": "sender",
                    "type": "address"
                },
                {
                    "indexed": false,
                    "internalType": "address",
                    "name": "reciever",
                    "type": "address"
                },
                {
                    "indexed": false,
                    "internalType": "uint256",
                    "name": "amount",
                    "type": "uint256"
                },
                {
                    "indexed": false,
                    "internalType": "uint256",
                    "name": "timestamp",
                    "type": "uint256"
                },
                {
                    "indexed": false,
                    "internalType": "string",
                    "name": "message",
                    "type": "string"
                }
            ],
            "name": "TransactionEvent",
            "type": "event"
        },
        {
            "inputs": [
                {
                    "internalType": "address",
                    "name": "reciever",
                    "type": "address"
                },
                {
                    "internalType": "uint256",
                    "name": "amount",
                    "type": "uint256"
                },
                {
                    "internalType": "string",
                    "name": "message",
                    "type": "string"
                }
            ],
            "name": "addToBlockchain",
            "outputs": [],
            "stateMutability": "nonpayable",
            "type": "function"
        },
        {
            "inputs": [],
            "name": "getAllTransaction",
            "outputs": [
                {
                    "components": [
                        {
                            "internalType": "address",
                            "name": "sender",
                            "type": "address"
                        },
                        {
                            "internalType": "address",
                            "name": "reciever",
                            "type": "address"
                        },
                        {
                            "internalType": "uint256",
                            "name": "amount",
                            "type": "uint256"
                        },
                        {
                            "internalType": "uint256",
                            "name": "timestamp",
                            "type": "uint256"
                        },
                        {
                            "internalType": "string",
                            "name": "message",
                            "type": "string"
                        }
                    ],
                    "internalType": "struct Transaction.transactionStuct[]",
                    "name": "",
                    "type": "tuple[]"
                }
            ],
            "stateMutability": "view",
            "type": "function"
        },
        {
            "inputs": [],
            "name": "getTransactionCount",
            "outputs": [
                {
                    "internalType": "uint256",
                    "name": "",
                    "type": "uint256"
                }
            ],
            "stateMutability": "view",
            "type": "function"
        }
    ],
    "bytecode": "0x608060405234801561001057600080fd5b50610c95806100206000396000f3fe608060405234801561001057600080fd5b50600436106100415760003560e01c80632e7700f014610046578063add6415d14610064578063eb12da4a14610082575b600080fd5b61004e61009e565b60405161005b9190610406565b60405180910390f35b61006c6100a7565b6040516100799190610639565b60405180910390f35b61009c600480360381019061009791906107fc565b610258565b005b60008054905090565b60606001805480602002602001604051908101604052809291908181526020016000905b8282101561024f57838290600052602060002090600502016040518060a00160405290816000820160009054906101000a900473ffffffffffffffffffffffffffffffffffffffff1673ffffffffffffffffffffffffffffffffffffffff1673ffffffffffffffffffffffffffffffffffffffff1681526020016001820160009054906101000a900473ffffffffffffffffffffffffffffffffffffffff1673ffffffffffffffffffffffffffffffffffffffff1673ffffffffffffffffffffffffffffffffffffffff16815260200160028201548152602001600382015481526020016004820180546101be9061089a565b80601f01602080910402602001604051908101604052809291908181526020018280546101ea9061089a565b80156102375780601f1061020c57610100808354040283529160200191610237565b820191906000526020600020905b81548152906001019060200180831161021a57829003601f168201915b505050505081525050815260200190600101906100cb565b50505050905090565b600160008082825461026a91906108fa565b9250508190555060016040518060a001604052803373ffffffffffffffffffffffffffffffffffffffff1681526020018573ffffffffffffffffffffffffffffffffffffffff16815260200184815260200142815260200183815250908060018154018082558091505060019003906000526020600020906005020160009091909190915060008201518160000160006101000a81548173ffffffffffffffffffffffffffffffffffffffff021916908373ffffffffffffffffffffffffffffffffffffffff16021790555060208201518160010160006101000a81548173ffffffffffffffffffffffffffffffffffffffff021916908373ffffffffffffffffffffffffffffffffffffffff160217905550604082015181600201556060820151816003015560808201518160040190816103a69190610ada565b5050507f23bd48479109ebe107d42a7fb2c7c7e9aadc60d240778f6bab53730f2dadef5933848442856040516103e0959493929190610c05565b60405180910390a1505050565b6000819050919050565b610400816103ed565b82525050565b600060208201905061041b60008301846103f7565b92915050565b600081519050919050565b600082825260208201905092915050565b6000819050602082019050919050565b600073ffffffffffffffffffffffffffffffffffffffff82169050919050565b60006104788261044d565b9050919050565b6104888161046d565b82525050565b610497816103ed565b82525050565b600081519050919050565b600082825260208201905092915050565b60005b838110156104d75780820151818401526020810190506104bc565b60008484015250505050565b6000601f19601f8301169050919050565b60006104ff8261049d565b61050981856104a8565b93506105198185602086016104b9565b610522816104e3565b840191505092915050565b600060a083016000830151610545600086018261047f565b506020830151610558602086018261047f565b50604083015161056b604086018261048e565b50606083015161057e606086018261048e565b506080830151848203608086015261059682826104f4565b9150508091505092915050565b60006105af838361052d565b905092915050565b6000602082019050919050565b60006105cf82610421565b6105d9818561042c565b9350836020820285016105eb8561043d565b8060005b85811015610627578484038952815161060885826105a3565b9450610613836105b7565b925060208a019950506001810190506105ef565b50829750879550505050505092915050565b6000602082019050818103600083015261065381846105c4565b905092915050565b6000604051905090565b600080fd5b600080fd5b6106788161046d565b811461068357600080fd5b50565b6000813590506106958161066f565b92915050565b6106a4816103ed565b81146106af57600080fd5b50565b6000813590506106c18161069b565b92915050565b600080fd5b600080fd5b7f4e487b7100000000000000000000000000000000000000000000000000000000600052604160045260246000fd5b610709826104e3565b810181811067ffffffffffffffff82111715610728576107276106d1565b5b80604052505050565b600061073b61065b565b90506107478282610700565b919050565b600067ffffffffffffffff821115610767576107666106d1565b5b610770826104e3565b9050602081019050919050565b82818337600083830152505050565b600061079f61079a8461074c565b610731565b9050828152602081018484840111156107bb576107ba6106cc565b5b6107c684828561077d565b509392505050565b600082601f8301126107e3576107e26106c7565b5b81356107f384826020860161078c565b91505092915050565b60008060006060848603121561081557610814610665565b5b600061082386828701610686565b9350506020610834868287016106b2565b925050604084013567ffffffffffffffff8111156108555761085461066a565b5b610861868287016107ce565b9150509250925092565b7f4e487b7100000000000000000000000000000000000000000000000000000000600052602260045260246000fd5b600060028204905060018216806108b257607f821691505b6020821081036108c5576108c461086b565b5b50919050565b7f4e487b7100000000000000000000000000000000000000000000000000000000600052601160045260246000fd5b6000610905826103ed565b9150610910836103ed565b9250828201905080821115610928576109276108cb565b5b92915050565b60008190508160005260206000209050919050565b60006020601f8301049050919050565b600082821b905092915050565b6000600883026109907fffffffffffffffffffffffffffffffffffffffffffffffffffffffffffffffff82610953565b61099a8683610953565b95508019841693508086168417925050509392505050565b6000819050919050565b60006109d76109d26109cd846103ed565b6109b2565b6103ed565b9050919050565b6000819050919050565b6109f1836109bc565b610a056109fd826109de565b848454610960565b825550505050565b600090565b610a1a610a0d565b610a258184846109e8565b505050565b5b81811015610a4957610a3e600082610a12565b600181019050610a2b565b5050565b601f821115610a8e57610a5f8161092e565b610a6884610943565b81016020851015610a77578190505b610a8b610a8385610943565b830182610a2a565b50505b505050565b600082821c905092915050565b6000610ab160001984600802610a93565b1980831691505092915050565b6000610aca8383610aa0565b9150826002028217905092915050565b610ae38261049d565b67ffffffffffffffff811115610afc57610afb6106d1565b5b610b06825461089a565b610b11828285610a4d565b600060209050601f831160018114610b445760008415610b32578287015190505b610b3c8582610abe565b865550610ba4565b601f198416610b528661092e565b60005b82811015610b7a57848901518255600182019150602085019450602081019050610b55565b86831015610b975784890151610b93601f891682610aa0565b8355505b6001600288020188555050505b505050505050565b610bb58161046d565b82525050565b600082825260208201905092915050565b6000610bd78261049d565b610be18185610bbb565b9350610bf18185602086016104b9565b610bfa816104e3565b840191505092915050565b600060a082019050610c1a6000830188610bac565b610c276020830187610bac565b610c3460408301866103f7565b610c4160608301856103f7565b8181036080830152610c538184610bcc565b9050969550505050505056fea264697066735822122048862c72a3910cbac93bf851d6e1834395a64cfd305a54ee066be6439921ca4364736f6c63430008140033",
    "linkReferences": {},
    "deployedLinkReferences": {}
}